{
  "_format": "hh-sol-artifact-1",
  "contractName": "ShockiToken",
  "sourceName": "src/modules/blockchain/contracts/ERC20.sol",
  "abi": [
    {
      "inputs": [
        {
          "internalType": "string",
          "name": "name",
          "type": "string"
        },
        {
          "internalType": "string",
          "name": "symbol",
          "type": "string"
        },
        {
          "internalType": "address",
          "name": "nftAddress",
          "type": "address"
        }
      ],
      "stateMutability": "nonpayable",
      "type": "constructor"
    },
    {
      "inputs": [
        {
          "internalType": "address",
          "name": "spender",
          "type": "address"
        },
        {
          "internalType": "uint256",
          "name": "allowance",
          "type": "uint256"
        },
        {
          "internalType": "uint256",
          "name": "needed",
          "type": "uint256"
        }
      ],
      "name": "ERC20InsufficientAllowance",
      "type": "error"
    },
    {
      "inputs": [
        {
          "internalType": "address",
          "name": "sender",
          "type": "address"
        },
        {
          "internalType": "uint256",
          "name": "balance",
          "type": "uint256"
        },
        {
          "internalType": "uint256",
          "name": "needed",
          "type": "uint256"
        }
      ],
      "name": "ERC20InsufficientBalance",
      "type": "error"
    },
    {
      "inputs": [
        {
          "internalType": "address",
          "name": "approver",
          "type": "address"
        }
      ],
      "name": "ERC20InvalidApprover",
      "type": "error"
    },
    {
      "inputs": [
        {
          "internalType": "address",
          "name": "receiver",
          "type": "address"
        }
      ],
      "name": "ERC20InvalidReceiver",
      "type": "error"
    },
    {
      "inputs": [
        {
          "internalType": "address",
          "name": "sender",
          "type": "address"
        }
      ],
      "name": "ERC20InvalidSender",
      "type": "error"
    },
    {
      "inputs": [
        {
          "internalType": "address",
          "name": "spender",
          "type": "address"
        }
      ],
      "name": "ERC20InvalidSpender",
      "type": "error"
    },
    {
      "anonymous": false,
      "inputs": [
        {
          "indexed": true,
          "internalType": "address",
          "name": "owner",
          "type": "address"
        },
        {
          "indexed": true,
          "internalType": "address",
          "name": "spender",
          "type": "address"
        },
        {
          "indexed": false,
          "internalType": "uint256",
          "name": "value",
          "type": "uint256"
        }
      ],
      "name": "Approval",
      "type": "event"
    },
    {
      "anonymous": false,
      "inputs": [
        {
          "indexed": true,
          "internalType": "address",
          "name": "from",
          "type": "address"
        },
        {
          "indexed": true,
          "internalType": "address",
          "name": "to",
          "type": "address"
        },
        {
          "indexed": false,
          "internalType": "uint256",
          "name": "value",
          "type": "uint256"
        }
      ],
      "name": "Transfer",
      "type": "event"
    },
    {
      "inputs": [],
      "name": "NFT_ADDRESS",
      "outputs": [
        {
          "internalType": "address",
          "name": "",
          "type": "address"
        }
      ],
      "stateMutability": "view",
      "type": "function"
    },
    {
      "inputs": [],
      "name": "NFT_MAX_SUPPLY",
      "outputs": [
        {
          "internalType": "uint32",
          "name": "",
          "type": "uint32"
        }
      ],
      "stateMutability": "view",
      "type": "function"
    },
    {
      "inputs": [
        {
          "internalType": "address",
          "name": "owner",
          "type": "address"
        },
        {
          "internalType": "address",
          "name": "spender",
          "type": "address"
        }
      ],
      "name": "allowance",
      "outputs": [
        {
          "internalType": "uint256",
          "name": "",
          "type": "uint256"
        }
      ],
      "stateMutability": "view",
      "type": "function"
    },
    {
      "inputs": [
        {
          "internalType": "address",
          "name": "spender",
          "type": "address"
        },
        {
          "internalType": "uint256",
          "name": "value",
          "type": "uint256"
        }
      ],
      "name": "approve",
      "outputs": [
        {
          "internalType": "bool",
          "name": "",
          "type": "bool"
        }
      ],
      "stateMutability": "nonpayable",
      "type": "function"
    },
    {
      "inputs": [
        {
          "internalType": "address",
          "name": "account",
          "type": "address"
        }
      ],
      "name": "balanceOf",
      "outputs": [
        {
          "internalType": "uint256",
          "name": "",
          "type": "uint256"
        }
      ],
      "stateMutability": "view",
      "type": "function"
    },
    {
      "inputs": [],
      "name": "decimals",
      "outputs": [
        {
          "internalType": "uint8",
          "name": "",
          "type": "uint8"
        }
      ],
      "stateMutability": "view",
      "type": "function"
    },
    {
      "inputs": [],
      "name": "name",
      "outputs": [
        {
          "internalType": "string",
          "name": "",
          "type": "string"
        }
      ],
      "stateMutability": "view",
      "type": "function"
    },
    {
      "inputs": [],
      "name": "symbol",
      "outputs": [
        {
          "internalType": "string",
          "name": "",
          "type": "string"
        }
      ],
      "stateMutability": "view",
      "type": "function"
    },
    {
      "inputs": [],
      "name": "totalSupply",
      "outputs": [
        {
          "internalType": "uint256",
          "name": "",
          "type": "uint256"
        }
      ],
      "stateMutability": "view",
      "type": "function"
    },
    {
      "inputs": [
        {
          "internalType": "address",
          "name": "to",
          "type": "address"
        },
        {
          "internalType": "uint256",
          "name": "value",
          "type": "uint256"
        }
      ],
      "name": "transfer",
      "outputs": [
        {
          "internalType": "bool",
          "name": "",
          "type": "bool"
        }
      ],
      "stateMutability": "nonpayable",
      "type": "function"
    },
    {
      "inputs": [
        {
          "internalType": "address",
          "name": "from",
          "type": "address"
        },
        {
          "internalType": "address",
          "name": "to",
          "type": "address"
        },
        {
          "internalType": "uint256",
          "name": "value",
          "type": "uint256"
        }
      ],
      "name": "transferFrom",
      "outputs": [
        {
          "internalType": "bool",
          "name": "",
          "type": "bool"
        }
      ],
      "stateMutability": "nonpayable",
      "type": "function"
    }
  ],
  "bytecode": "0x60806040523480156200001157600080fd5b5060405162000eb038038062000eb08339810160408190526200003491620002cc565b82826003620000448382620003ea565b506004620000538282620003ea565b506200006691503390506103e86200008f565b600580546001600160a01b0319166001600160a01b039290921691909117905550620004de9050565b6001600160a01b038216620000bf5760405163ec442f0560e01b8152600060048201526024015b60405180910390fd5b620000cd60008383620000d1565b5050565b6001600160a01b03831662000100578060026000828254620000f49190620004b6565b90915550620001749050565b6001600160a01b03831660009081526020819052604090205481811015620001555760405163391434e360e21b81526001600160a01b03851660048201526024810182905260448101839052606401620000b6565b6001600160a01b03841660009081526020819052604090209082900390555b6001600160a01b0382166200019257600280548290039055620001b1565b6001600160a01b03821660009081526020819052604090208054820190555b816001600160a01b0316836001600160a01b03167fddf252ad1be2c89b69c2b068fc378daa952ba7f163c4a11628f55a4df523b3ef83604051620001f791815260200190565b60405180910390a3505050565b634e487b7160e01b600052604160045260246000fd5b600082601f8301126200022c57600080fd5b81516001600160401b038082111562000249576200024962000204565b604051601f8301601f19908116603f0116810190828211818310171562000274576200027462000204565b81604052838152602092508660208588010111156200029257600080fd5b600091505b83821015620002b6578582018301518183018401529082019062000297565b6000602085830101528094505050505092915050565b600080600060608486031215620002e257600080fd5b83516001600160401b0380821115620002fa57600080fd5b62000308878388016200021a565b945060208601519150808211156200031f57600080fd5b506200032e868287016200021a565b604086015190935090506001600160a01b03811681146200034e57600080fd5b809150509250925092565b600181811c908216806200036e57607f821691505b6020821081036200038f57634e487b7160e01b600052602260045260246000fd5b50919050565b601f821115620003e5576000816000526020600020601f850160051c81016020861015620003c05750805b601f850160051c820191505b81811015620003e157828155600101620003cc565b5050505b505050565b81516001600160401b0381111562000406576200040662000204565b6200041e8162000417845462000359565b8462000395565b602080601f8311600181146200045657600084156200043d5750858301515b600019600386901b1c1916600185901b178555620003e1565b600085815260208120601f198616915b82811015620004875788860151825594840194600190910190840162000466565b5085821015620004a65787850151600019600388901b60f8161c191681555b5050505050600190811b01905550565b80820180821115620004d857634e487b7160e01b600052601160045260246000fd5b92915050565b6109c280620004ee6000396000f3fe608060405234801561001057600080fd5b50600436106100c95760003560e01c8063313ce56711610081578063a9059cbb1161005b578063a9059cbb1461019f578063b32c5c45146101b2578063dd62ed3e146101f757600080fd5b8063313ce5671461015257806370a082311461016157806395d89b411461019757600080fd5b806318160ddd116100b257806318160ddd1461010f57806323b872dd146101215780632b241e1b1461013457600080fd5b806306fdde03146100ce578063095ea7b3146100ec575b600080fd5b6100d661023d565b6040516100e391906107ae565b60405180910390f35b6100ff6100fa366004610844565b6102cf565b60405190151581526020016100e3565b6002545b6040519081526020016100e3565b6100ff61012f36600461086e565b6102e9565b61013d6103e881565b60405163ffffffff90911681526020016100e3565b604051601281526020016100e3565b61011361016f3660046108aa565b73ffffffffffffffffffffffffffffffffffffffff1660009081526020819052604090205490565b6100d661030d565b6100ff6101ad366004610844565b61031c565b6005546101d29073ffffffffffffffffffffffffffffffffffffffff1681565b60405173ffffffffffffffffffffffffffffffffffffffff90911681526020016100e3565b6101136102053660046108cc565b73ffffffffffffffffffffffffffffffffffffffff918216600090815260016020908152604080832093909416825291909152205490565b60606003805461024c906108ff565b80601f0160208091040260200160405190810160405280929190818152602001828054610278906108ff565b80156102c55780601f1061029a576101008083540402835291602001916102c5565b820191906000526020600020905b8154815290600101906020018083116102a857829003601f168201915b5050505050905090565b6000336102dd81858561032a565b60019150505b92915050565b6000336102f785828561033c565b610302858585610410565b506001949350505050565b60606004805461024c906108ff565b6000336102dd818585610410565b61033783838360016104bb565b505050565b73ffffffffffffffffffffffffffffffffffffffff8381166000908152600160209081526040808320938616835292905220547fffffffffffffffffffffffffffffffffffffffffffffffffffffffffffffffff811461040a57818110156103fb576040517ffb8f41b200000000000000000000000000000000000000000000000000000000815273ffffffffffffffffffffffffffffffffffffffff8416600482015260248101829052604481018390526064015b60405180910390fd5b61040a848484840360006104bb565b50505050565b73ffffffffffffffffffffffffffffffffffffffff8316610460576040517f96c6fd1e000000000000000000000000000000000000000000000000000000008152600060048201526024016103f2565b73ffffffffffffffffffffffffffffffffffffffff82166104b0576040517fec442f05000000000000000000000000000000000000000000000000000000008152600060048201526024016103f2565b610337838383610603565b73ffffffffffffffffffffffffffffffffffffffff841661050b576040517fe602df05000000000000000000000000000000000000000000000000000000008152600060048201526024016103f2565b73ffffffffffffffffffffffffffffffffffffffff831661055b576040517f94280d62000000000000000000000000000000000000000000000000000000008152600060048201526024016103f2565b73ffffffffffffffffffffffffffffffffffffffff8085166000908152600160209081526040808320938716835292905220829055801561040a578273ffffffffffffffffffffffffffffffffffffffff168473ffffffffffffffffffffffffffffffffffffffff167f8c5be1e5ebec7d5bd14f71427d1e84f3dd0314c0f7b2291e5b200ac8c7c3b925846040516105f591815260200190565b60405180910390a350505050565b73ffffffffffffffffffffffffffffffffffffffff831661063b5780600260008282546106309190610952565b909155506106ed9050565b73ffffffffffffffffffffffffffffffffffffffff8316600090815260208190526040902054818110156106c1576040517fe450d38c00000000000000000000000000000000000000000000000000000000815273ffffffffffffffffffffffffffffffffffffffff8516600482015260248101829052604481018390526064016103f2565b73ffffffffffffffffffffffffffffffffffffffff841660009081526020819052604090209082900390555b73ffffffffffffffffffffffffffffffffffffffff821661071657600280548290039055610742565b73ffffffffffffffffffffffffffffffffffffffff821660009081526020819052604090208054820190555b8173ffffffffffffffffffffffffffffffffffffffff168373ffffffffffffffffffffffffffffffffffffffff167fddf252ad1be2c89b69c2b068fc378daa952ba7f163c4a11628f55a4df523b3ef836040516107a191815260200190565b60405180910390a3505050565b60006020808352835180602085015260005b818110156107dc578581018301518582016040015282016107c0565b5060006040828601015260407fffffffffffffffffffffffffffffffffffffffffffffffffffffffffffffffe0601f8301168501019250505092915050565b803573ffffffffffffffffffffffffffffffffffffffff8116811461083f57600080fd5b919050565b6000806040838503121561085757600080fd5b6108608361081b565b946020939093013593505050565b60008060006060848603121561088357600080fd5b61088c8461081b565b925061089a6020850161081b565b9150604084013590509250925092565b6000602082840312156108bc57600080fd5b6108c58261081b565b9392505050565b600080604083850312156108df57600080fd5b6108e88361081b565b91506108f66020840161081b565b90509250929050565b600181811c9082168061091357607f821691505b60208210810361094c577f4e487b7100000000000000000000000000000000000000000000000000000000600052602260045260246000fd5b50919050565b808201808211156102e3577f4e487b7100000000000000000000000000000000000000000000000000000000600052601160045260246000fdfea2646970667358221220375be1bc25b9ee607288b1417749907e7805170e6f92ed45329c691f93383c1364736f6c63430008180033",
  "linkReferences": {},
  "deployedLinkReferences": {}
}