{
  "_format": "hh-sol-artifact-1",
  "contractName": "ShockiNFT",
  "sourceName": "src/modules/blockchain/contracts/ERC721.sol",
  "abi": [
    {
      "inputs": [
        {
          "internalType": "string",
          "name": "name",
          "type": "string"
        },
        {
          "internalType": "string",
          "name": "symbol",
          "type": "string"
        }
      ],
      "stateMutability": "nonpayable",
      "type": "constructor"
    },
    {
      "inputs": [
        {
          "internalType": "address",
          "name": "sender",
          "type": "address"
        },
        {
          "internalType": "uint256",
          "name": "tokenId",
          "type": "uint256"
        },
        {
          "internalType": "address",
          "name": "owner",
          "type": "address"
        }
      ],
      "name": "ERC721IncorrectOwner",
      "type": "error"
    },
    {
      "inputs": [
        {
          "internalType": "address",
          "name": "operator",
          "type": "address"
        },
        {
          "internalType": "uint256",
          "name": "tokenId",
          "type": "uint256"
        }
      ],
      "name": "ERC721InsufficientApproval",
      "type": "error"
    },
    {
      "inputs": [
        {
          "internalType": "address",
          "name": "approver",
          "type": "address"
        }
      ],
      "name": "ERC721InvalidApprover",
      "type": "error"
    },
    {
      "inputs": [
        {
          "internalType": "address",
          "name": "operator",
          "type": "address"
        }
      ],
      "name": "ERC721InvalidOperator",
      "type": "error"
    },
    {
      "inputs": [
        {
          "internalType": "address",
          "name": "owner",
          "type": "address"
        }
      ],
      "name": "ERC721InvalidOwner",
      "type": "error"
    },
    {
      "inputs": [
        {
          "internalType": "address",
          "name": "receiver",
          "type": "address"
        }
      ],
      "name": "ERC721InvalidReceiver",
      "type": "error"
    },
    {
      "inputs": [
        {
          "internalType": "address",
          "name": "sender",
          "type": "address"
        }
      ],
      "name": "ERC721InvalidSender",
      "type": "error"
    },
    {
      "inputs": [
        {
          "internalType": "uint256",
          "name": "tokenId",
          "type": "uint256"
        }
      ],
      "name": "ERC721NonexistentToken",
      "type": "error"
    },
    {
      "anonymous": false,
      "inputs": [
        {
          "indexed": true,
          "internalType": "address",
          "name": "owner",
          "type": "address"
        },
        {
          "indexed": true,
          "internalType": "address",
          "name": "approved",
          "type": "address"
        },
        {
          "indexed": true,
          "internalType": "uint256",
          "name": "tokenId",
          "type": "uint256"
        }
      ],
      "name": "Approval",
      "type": "event"
    },
    {
      "anonymous": false,
      "inputs": [
        {
          "indexed": true,
          "internalType": "address",
          "name": "owner",
          "type": "address"
        },
        {
          "indexed": true,
          "internalType": "address",
          "name": "operator",
          "type": "address"
        },
        {
          "indexed": false,
          "internalType": "bool",
          "name": "approved",
          "type": "bool"
        }
      ],
      "name": "ApprovalForAll",
      "type": "event"
    },
    {
      "anonymous": false,
      "inputs": [
        {
          "indexed": true,
          "internalType": "address",
          "name": "from",
          "type": "address"
        },
        {
          "indexed": true,
          "internalType": "address",
          "name": "to",
          "type": "address"
        },
        {
          "indexed": true,
          "internalType": "uint256",
          "name": "tokenId",
          "type": "uint256"
        }
      ],
      "name": "Transfer",
      "type": "event"
    },
    {
      "inputs": [
        {
          "internalType": "address",
          "name": "to",
          "type": "address"
        },
        {
          "internalType": "uint256",
          "name": "tokenId",
          "type": "uint256"
        }
      ],
      "name": "approve",
      "outputs": [],
      "stateMutability": "nonpayable",
      "type": "function"
    },
    {
      "inputs": [
        {
          "internalType": "address",
          "name": "owner",
          "type": "address"
        }
      ],
      "name": "balanceOf",
      "outputs": [
        {
          "internalType": "uint256",
          "name": "",
          "type": "uint256"
        }
      ],
      "stateMutability": "view",
      "type": "function"
    },
    {
      "inputs": [
        {
          "internalType": "uint256",
          "name": "tokenId",
          "type": "uint256"
        }
      ],
      "name": "getApproved",
      "outputs": [
        {
          "internalType": "address",
          "name": "",
          "type": "address"
        }
      ],
      "stateMutability": "view",
      "type": "function"
    },
    {
      "inputs": [
        {
          "internalType": "address",
          "name": "owner",
          "type": "address"
        },
        {
          "internalType": "address",
          "name": "operator",
          "type": "address"
        }
      ],
      "name": "isApprovedForAll",
      "outputs": [
        {
          "internalType": "bool",
          "name": "",
          "type": "bool"
        }
      ],
      "stateMutability": "view",
      "type": "function"
    },
    {
      "inputs": [],
      "name": "name",
      "outputs": [
        {
          "internalType": "string",
          "name": "",
          "type": "string"
        }
      ],
      "stateMutability": "view",
      "type": "function"
    },
    {
      "inputs": [
        {
          "internalType": "uint256",
          "name": "tokenId",
          "type": "uint256"
        }
      ],
      "name": "ownerOf",
      "outputs": [
        {
          "internalType": "address",
          "name": "",
          "type": "address"
        }
      ],
      "stateMutability": "view",
      "type": "function"
    },
    {
      "inputs": [
        {
          "internalType": "address",
          "name": "from",
          "type": "address"
        },
        {
          "internalType": "address",
          "name": "to",
          "type": "address"
        },
        {
          "internalType": "uint256",
          "name": "tokenId",
          "type": "uint256"
        }
      ],
      "name": "safeTransferFrom",
      "outputs": [],
      "stateMutability": "nonpayable",
      "type": "function"
    },
    {
      "inputs": [
        {
          "internalType": "address",
          "name": "from",
          "type": "address"
        },
        {
          "internalType": "address",
          "name": "to",
          "type": "address"
        },
        {
          "internalType": "uint256",
          "name": "tokenId",
          "type": "uint256"
        },
        {
          "internalType": "bytes",
          "name": "data",
          "type": "bytes"
        }
      ],
      "name": "safeTransferFrom",
      "outputs": [],
      "stateMutability": "nonpayable",
      "type": "function"
    },
    {
      "inputs": [
        {
          "internalType": "address",
          "name": "operator",
          "type": "address"
        },
        {
          "internalType": "bool",
          "name": "approved",
          "type": "bool"
        }
      ],
      "name": "setApprovalForAll",
      "outputs": [],
      "stateMutability": "nonpayable",
      "type": "function"
    },
    {
      "inputs": [
        {
          "internalType": "string",
          "name": "newBaseURI",
          "type": "string"
        }
      ],
      "name": "setBaseURI",
      "outputs": [],
      "stateMutability": "nonpayable",
      "type": "function"
    },
    {
      "inputs": [
        {
          "internalType": "bytes4",
          "name": "interfaceId",
          "type": "bytes4"
        }
      ],
      "name": "supportsInterface",
      "outputs": [
        {
          "internalType": "bool",
          "name": "",
          "type": "bool"
        }
      ],
      "stateMutability": "view",
      "type": "function"
    },
    {
      "inputs": [],
      "name": "symbol",
      "outputs": [
        {
          "internalType": "string",
          "name": "",
          "type": "string"
        }
      ],
      "stateMutability": "view",
      "type": "function"
    },
    {
      "inputs": [
        {
          "internalType": "uint256",
          "name": "tokenId",
          "type": "uint256"
        }
      ],
      "name": "tokenURI",
      "outputs": [
        {
          "internalType": "string",
          "name": "",
          "type": "string"
        }
      ],
      "stateMutability": "view",
      "type": "function"
    },
    {
      "inputs": [
        {
          "internalType": "address",
          "name": "from",
          "type": "address"
        },
        {
          "internalType": "address",
          "name": "to",
          "type": "address"
        },
        {
          "internalType": "uint256",
          "name": "tokenId",
          "type": "uint256"
        }
      ],
      "name": "transferFrom",
      "outputs": [],
      "stateMutability": "nonpayable",
      "type": "function"
    }
  ],
  "bytecode": "0x60806040523480156200001157600080fd5b5060405162001d2f38038062001d2f83398101604081905262000034916200050d565b8181600062000044838262000607565b50600162000053828262000607565b505050620000693360016200007160201b60201c565b5050620006d3565b6001600160a01b038216620000a157604051633250574960e11b8152600060048201526024015b60405180910390fd5b6000620000b0838383620000e4565b90506001600160a01b03811615620000df576040516339e3563760e11b81526000600482015260240162000098565b505050565b6000828152600260205260408120546001600160a01b0390811690831615620001145762000114818486620001e3565b6001600160a01b0381161562000154576200013360008581806200024d565b6001600160a01b038116600090815260036020526040902080546000190190555b6001600160a01b0385161562000184576001600160a01b0385166000908152600360205260409020805460010190555b60008481526002602052604080822080546001600160a01b0319166001600160a01b0389811691821790925591518793918516917fddf252ad1be2c89b69c2b068fc378daa952ba7f163c4a11628f55a4df523b3ef91a4949350505050565b620001f08383836200037b565b620000df576001600160a01b0383166200022157604051637e27328960e01b81526004810182905260240162000098565b60405163177e802f60e01b81526001600160a01b03831660048201526024810182905260440162000098565b80806200026257506001600160a01b03821615155b156200034b576000620002758462000404565b90506001600160a01b03831615801590620002a25750826001600160a01b0316816001600160a01b031614155b8015620002d557506001600160a01b0380821660009081526005602090815260408083209387168352929052205460ff16155b15620003005760405163a9fbf51f60e01b81526001600160a01b038416600482015260240162000098565b8115620003495783856001600160a01b0316826001600160a01b03167f8c5be1e5ebec7d5bd14f71427d1e84f3dd0314c0f7b2291e5b200ac8c7c3b92560405160405180910390a45b505b5050600090815260046020526040902080546001600160a01b0319166001600160a01b0392909216919091179055565b60006001600160a01b03831615801590620003fc5750826001600160a01b0316846001600160a01b03161480620003d757506001600160a01b0380851660009081526005602090815260408083209387168352929052205460ff165b80620003fc57506000828152600460205260409020546001600160a01b038481169116145b949350505050565b6000818152600260205260408120546001600160a01b0316806200043f57604051637e27328960e01b81526004810184905260240162000098565b92915050565b634e487b7160e01b600052604160045260246000fd5b600082601f8301126200046d57600080fd5b81516001600160401b03808211156200048a576200048a62000445565b604051601f8301601f19908116603f01168101908282118183101715620004b557620004b562000445565b8160405283815260209250866020858801011115620004d357600080fd5b600091505b83821015620004f75785820183015181830184015290820190620004d8565b6000602085830101528094505050505092915050565b600080604083850312156200052157600080fd5b82516001600160401b03808211156200053957600080fd5b62000547868387016200045b565b935060208501519150808211156200055e57600080fd5b506200056d858286016200045b565b9150509250929050565b600181811c908216806200058c57607f821691505b602082108103620005ad57634e487b7160e01b600052602260045260246000fd5b50919050565b601f821115620000df576000816000526020600020601f850160051c81016020861015620005de5750805b601f850160051c820191505b81811015620005ff57828155600101620005ea565b505050505050565b81516001600160401b0381111562000623576200062362000445565b6200063b8162000634845462000577565b84620005b3565b602080601f8311600181146200067357600084156200065a5750858301515b600019600386901b1c1916600185901b178555620005ff565b600085815260208120601f198616915b82811015620006a45788860151825594840194600190910190840162000683565b5085821015620006c35787850151600019600388901b60f8161c191681555b5050505050600190811b01905550565b61164c80620006e36000396000f3fe608060405234801561001057600080fd5b50600436106100ea5760003560e01c80636352211e1161008c578063a22cb46511610066578063a22cb465146101ee578063b88d4fde14610201578063c87b56dd14610214578063e985e9c51461022757600080fd5b80636352211e146101b257806370a08231146101c557806395d89b41146101e657600080fd5b8063095ea7b3116100c8578063095ea7b31461016457806323b872dd1461017957806342842e0e1461018c57806355f804b31461019f57600080fd5b806301ffc9a7146100ef57806306fdde0314610117578063081812fc1461012c575b600080fd5b6101026100fd36600461106c565b610270565b60405190151581526020015b60405180910390f35b61011f610355565b60405161010e91906110f7565b61013f61013a36600461110a565b6103e7565b60405173ffffffffffffffffffffffffffffffffffffffff909116815260200161010e565b61017761017236600461114c565b61041d565b005b610177610187366004611176565b61042c565b61017761019a366004611176565b610522565b6101776101ad366004611275565b610542565b61013f6101c036600461110a565b61054e565b6101d86101d33660046112be565b610559565b60405190815260200161010e565b61011f6105d4565b6101776101fc3660046112d9565b6105e3565b61017761020f366004611315565b6105ee565b61011f61022236600461110a565b610605565b610102610235366004611391565b73ffffffffffffffffffffffffffffffffffffffff918216600090815260056020908152604080832093909416825291909152205460ff1690565b60007fffffffff0000000000000000000000000000000000000000000000000000000082167f80ac58cd00000000000000000000000000000000000000000000000000000000148061030357507fffffffff0000000000000000000000000000000000000000000000000000000082167f5b5e139f00000000000000000000000000000000000000000000000000000000145b8061034f57507f01ffc9a7000000000000000000000000000000000000000000000000000000007fffffffff000000000000000000000000000000000000000000000000000000008316145b92915050565b606060008054610364906113c4565b80601f0160208091040260200160405190810160405280929190818152602001828054610390906113c4565b80156103dd5780601f106103b2576101008083540402835291602001916103dd565b820191906000526020600020905b8154815290600101906020018083116103c057829003601f168201915b5050505050905090565b60006103f28261066d565b5060008281526004602052604090205473ffffffffffffffffffffffffffffffffffffffff1661034f565b6104288282336106cc565b5050565b73ffffffffffffffffffffffffffffffffffffffff8216610481576040517f64a0ae92000000000000000000000000000000000000000000000000000000008152600060048201526024015b60405180910390fd5b600061048e8383336106d9565b90508373ffffffffffffffffffffffffffffffffffffffff168173ffffffffffffffffffffffffffffffffffffffff161461051c576040517f64283d7b00000000000000000000000000000000000000000000000000000000815273ffffffffffffffffffffffffffffffffffffffff80861660048301526024820184905282166044820152606401610478565b50505050565b61053d838383604051806020016040528060008152506105ee565b505050565b60066104288282611467565b600061034f8261066d565b600073ffffffffffffffffffffffffffffffffffffffff82166105ab576040517f89c62b6400000000000000000000000000000000000000000000000000000000815260006004820152602401610478565b5073ffffffffffffffffffffffffffffffffffffffff1660009081526003602052604090205490565b606060018054610364906113c4565b610428338383610856565b6105f984848461042c565b61051c84848484610953565b60606106108261066d565b50600061061b610b4a565b9050600081511161063b5760405180602001604052806000815250610666565b8061064584610b59565b604051602001610656929190611581565b6040516020818303038152906040525b9392505050565b60008181526002602052604081205473ffffffffffffffffffffffffffffffffffffffff168061034f576040517f7e27328900000000000000000000000000000000000000000000000000000000815260048101849052602401610478565b61053d8383836001610c17565b60008281526002602052604081205473ffffffffffffffffffffffffffffffffffffffff9081169083161561071357610713818486610de2565b73ffffffffffffffffffffffffffffffffffffffff8116156107895761073d600085600080610c17565b73ffffffffffffffffffffffffffffffffffffffff8116600090815260036020526040902080547fffffffffffffffffffffffffffffffffffffffffffffffffffffffffffffffff0190555b73ffffffffffffffffffffffffffffffffffffffff8516156107d25773ffffffffffffffffffffffffffffffffffffffff85166000908152600360205260409020805460010190555b60008481526002602052604080822080547fffffffffffffffffffffffff00000000000000000000000000000000000000001673ffffffffffffffffffffffffffffffffffffffff89811691821790925591518793918516917fddf252ad1be2c89b69c2b068fc378daa952ba7f163c4a11628f55a4df523b3ef91a4949350505050565b73ffffffffffffffffffffffffffffffffffffffff82166108bb576040517f5b08ba1800000000000000000000000000000000000000000000000000000000815273ffffffffffffffffffffffffffffffffffffffff83166004820152602401610478565b73ffffffffffffffffffffffffffffffffffffffff83811660008181526005602090815260408083209487168084529482529182902080547fffffffffffffffffffffffffffffffffffffffffffffffffffffffffffffff001686151590811790915591519182527f17307eab39ab6107e8899845ad3d59bd9653f200f220920489ca2b5937696c31910160405180910390a3505050565b73ffffffffffffffffffffffffffffffffffffffff83163b1561051c576040517f150b7a0200000000000000000000000000000000000000000000000000000000815273ffffffffffffffffffffffffffffffffffffffff84169063150b7a02906109c89033908890879087906004016115b0565b6020604051808303816000875af1925050508015610a21575060408051601f3d9081017fffffffffffffffffffffffffffffffffffffffffffffffffffffffffffffffe0168201909252610a1e918101906115f9565b60015b610ab0573d808015610a4f576040519150601f19603f3d011682016040523d82523d6000602084013e610a54565b606091505b508051600003610aa8576040517f64a0ae9200000000000000000000000000000000000000000000000000000000815273ffffffffffffffffffffffffffffffffffffffff85166004820152602401610478565b805181602001fd5b7fffffffff0000000000000000000000000000000000000000000000000000000081167f150b7a020000000000000000000000000000000000000000000000000000000014610b43576040517f64a0ae9200000000000000000000000000000000000000000000000000000000815273ffffffffffffffffffffffffffffffffffffffff85166004820152602401610478565b5050505050565b606060068054610364906113c4565b60606000610b6683610e92565b600101905060008167ffffffffffffffff811115610b8657610b866111b2565b6040519080825280601f01601f191660200182016040528015610bb0576020820181803683370190505b5090508181016020015b7fffffffffffffffffffffffffffffffffffffffffffffffffffffffffffffffff017f3031323334353637383961626364656600000000000000000000000000000000600a86061a8153600a8504945084610bba57509392505050565b8080610c38575073ffffffffffffffffffffffffffffffffffffffff821615155b15610d8d576000610c488461066d565b905073ffffffffffffffffffffffffffffffffffffffff831615801590610c9b57508273ffffffffffffffffffffffffffffffffffffffff168173ffffffffffffffffffffffffffffffffffffffff1614155b8015610cda575073ffffffffffffffffffffffffffffffffffffffff80821660009081526005602090815260408083209387168352929052205460ff16155b15610d29576040517fa9fbf51f00000000000000000000000000000000000000000000000000000000815273ffffffffffffffffffffffffffffffffffffffff84166004820152602401610478565b8115610d8b57838573ffffffffffffffffffffffffffffffffffffffff168273ffffffffffffffffffffffffffffffffffffffff167f8c5be1e5ebec7d5bd14f71427d1e84f3dd0314c0f7b2291e5b200ac8c7c3b92560405160405180910390a45b505b5050600090815260046020526040902080547fffffffffffffffffffffffff00000000000000000000000000000000000000001673ffffffffffffffffffffffffffffffffffffffff92909216919091179055565b610ded838383610f74565b61053d5773ffffffffffffffffffffffffffffffffffffffff8316610e41576040517f7e27328900000000000000000000000000000000000000000000000000000000815260048101829052602401610478565b6040517f177e802f00000000000000000000000000000000000000000000000000000000815273ffffffffffffffffffffffffffffffffffffffff8316600482015260248101829052604401610478565b6000807a184f03e93ff9f4daa797ed6e38ed64bf6a1f0100000000000000008310610edb577a184f03e93ff9f4daa797ed6e38ed64bf6a1f010000000000000000830492506040015b6d04ee2d6d415b85acef81000000008310610f07576d04ee2d6d415b85acef8100000000830492506020015b662386f26fc100008310610f2557662386f26fc10000830492506010015b6305f5e1008310610f3d576305f5e100830492506008015b6127108310610f5157612710830492506004015b60648310610f63576064830492506002015b600a831061034f5760010192915050565b600073ffffffffffffffffffffffffffffffffffffffff83161580159061103357508273ffffffffffffffffffffffffffffffffffffffff168473ffffffffffffffffffffffffffffffffffffffff161480611002575073ffffffffffffffffffffffffffffffffffffffff80851660009081526005602090815260408083209387168352929052205460ff165b80611033575060008281526004602052604090205473ffffffffffffffffffffffffffffffffffffffff8481169116145b949350505050565b7fffffffff000000000000000000000000000000000000000000000000000000008116811461106957600080fd5b50565b60006020828403121561107e57600080fd5b81356106668161103b565b60005b838110156110a457818101518382015260200161108c565b50506000910152565b600081518084526110c5816020860160208601611089565b601f017fffffffffffffffffffffffffffffffffffffffffffffffffffffffffffffffe0169290920160200192915050565b60208152600061066660208301846110ad565b60006020828403121561111c57600080fd5b5035919050565b803573ffffffffffffffffffffffffffffffffffffffff8116811461114757600080fd5b919050565b6000806040838503121561115f57600080fd5b61116883611123565b946020939093013593505050565b60008060006060848603121561118b57600080fd5b61119484611123565b92506111a260208501611123565b9150604084013590509250925092565b7f4e487b7100000000000000000000000000000000000000000000000000000000600052604160045260246000fd5b600067ffffffffffffffff808411156111fc576111fc6111b2565b604051601f85017fffffffffffffffffffffffffffffffffffffffffffffffffffffffffffffffe0908116603f01168101908282118183101715611242576112426111b2565b8160405280935085815286868601111561125b57600080fd5b858560208301376000602087830101525050509392505050565b60006020828403121561128757600080fd5b813567ffffffffffffffff81111561129e57600080fd5b8201601f810184136112af57600080fd5b611033848235602084016111e1565b6000602082840312156112d057600080fd5b61066682611123565b600080604083850312156112ec57600080fd5b6112f583611123565b91506020830135801515811461130a57600080fd5b809150509250929050565b6000806000806080858703121561132b57600080fd5b61133485611123565b935061134260208601611123565b925060408501359150606085013567ffffffffffffffff81111561136557600080fd5b8501601f8101871361137657600080fd5b611385878235602084016111e1565b91505092959194509250565b600080604083850312156113a457600080fd5b6113ad83611123565b91506113bb60208401611123565b90509250929050565b600181811c908216806113d857607f821691505b602082108103611411577f4e487b7100000000000000000000000000000000000000000000000000000000600052602260045260246000fd5b50919050565b601f82111561053d576000816000526020600020601f850160051c810160208610156114405750805b601f850160051c820191505b8181101561145f5782815560010161144c565b505050505050565b815167ffffffffffffffff811115611481576114816111b2565b6114958161148f84546113c4565b84611417565b602080601f8311600181146114e857600084156114b25750858301515b7fffffffffffffffffffffffffffffffffffffffffffffffffffffffffffffffff600386901b1c1916600185901b17855561145f565b6000858152602081207fffffffffffffffffffffffffffffffffffffffffffffffffffffffffffffffe08616915b8281101561153557888601518255948401946001909101908401611516565b508582101561157157878501517fffffffffffffffffffffffffffffffffffffffffffffffffffffffffffffffff600388901b60f8161c191681555b5050505050600190811b01905550565b60008351611593818460208801611089565b8351908301906115a7818360208801611089565b01949350505050565b600073ffffffffffffffffffffffffffffffffffffffff8087168352808616602084015250836040830152608060608301526115ef60808301846110ad565b9695505050505050565b60006020828403121561160b57600080fd5b81516106668161103b56fea264697066735822122029b893bca3e56da437280eaa36b2ea4815f45f5628e38a699506267c690a12e864736f6c63430008180033",
  "linkReferences": {},
  "deployedLinkReferences": {}
}